:1000000000100020910000008D0000008D00000015
:1000100000000000000000000000000000000000E0
:100020000000000000000000000000008D00000043
:1000300000000000000000008D0000008D000000A6
:100040008D0000008D0000008D0000008D0000007C
:100050008D0000008D0000008D0000008D0000006C
:100060008D000000650500008D0000008D0000007F
:100070008D0000008D0000008D0000008D0000004C
:100080008D0000008D0000008D000000FEE7FFFFE6
:10009000002370B509480A490A4C1A188A4207D346
:1000A0000021094B094A934206D300F089F8FEE784
:1000B000E55804331560F0E702C3F4E700000020C0
:1000C0001800002094120000180000209004002066
:1000D0008022054B92009A6049331978FF3AFF3A23
:1000E0000A431A707047C0460044004170B50025AD
:1000F000074C084B08481D702368403B5942594142
:10010000064A1170216800F0D5FD256070BDC0461B
:10011000A00000200000002060000020A4000020BB
:100120000122014B1A707047000000200022024B90
:100130001A60024B18607047580000205C000020D5
:1001400010B54021014800F0BCFD10BD1800002092
:1001500010B500F015F910BD70B58025054CAD0047
:10016000C30703D5FFF7B4FFA56170BDFFF7B0FF6C
:100170006561FAE7004400410A4B10B51B78002B7B
:100180000ED0094B09491B68094A0A3313600A68F3
:10019000531C0B6007498854402B01D1FFF7A6FF81
:1001A00010BDC04600000020AC000020A0000020D0
:1001B000B00000206000002010B500F089FD10BDE7
:1001C000564A574BF0B55A60C2220020554BD20018
:1001D00055499A60554A096812688905988487B01C
:1001E000920E890D1030DC680442FCD05048920217
:1001F0000A43D8629A62932252009A841021020024
:10020000D8680842FCD04B4B4B495960597849B2E9
:100210000029FBDB00200F26484B49491B68096871
:10022000484C4B404849494D09684B40484909688A
:100230004B401F008100CF4039003140695C2154A0
:1002400001300828F5D10023424D6372AB606A602B
:100250000122414C2A60236000F076FD00F0FCFC96
:10026000FFF736FF80233D4A9B00536101950292C0
:1002700003938022019B52021B68134202D0236821
:100280000133236000F0DAFB354D2B68002B07D0DB
:10029000344E354F3368F85C00F00CF9002825D156
:1002A000324B1B78002B32D1314D2B68002B0ED0F6
:1002B000226893420BDA2F4B1B78002B03D12E4B75
:1002C0001B68002B01D0FFF711FF00232B602B4D83
:1002D0002B68002BCDD022689342CADAFFF7F8FED4
:1002E000029B039A5A6100232B60C2E733680133F3
:1002F00033602B68013B2B60002BC5D140213800B7
:1003000000F0DFFCC0E704AB1879FFF735FF05A864
:1003100000F0FEF80028F6D1C6E7C046040004004D
:1003200000400041000800402860800024608000F8
:1003300080BB0000000C0040000721000CA08000E2
:1003400040A080008004002044A080000012000033
:1003500048A0800010E000E0AC0000200044004114
:100360005C00002058000020180000200000002041
:10037000B0000020A4000020A0000020A800002061
:10038000F0B501253E4A0F24137885B02B43137036
:1003900003233C4A1178A1430B43202113703A4BAD
:1003A0009961042339490E781E430E700E782E434E
:1003B0000E7011780C40302121431170344A354CB5
:1003C000116A0B431362344A344B5A802560236808
:1003D000DB07DB0FFBD1324A13605360314A1360F5
:1003E000536082791600052A04D0062A02D0072A13
:1003F00000D01E004579002D02D0022D3DD00125F0
:100400008027BF0103792D065A1E93419B01039358
:10041000437802781B021A4383781B041343C27883
:10042000214812061A431101019200F0E9FD1F4B09
:1004300002901D43C02325609B021E43039B37434C
:100440001F4367600199184800F0DAFD029B029A89
:100450001B01C31A5B08D004C00C5B0303439BB2AF
:10046000A381022322681343236004238022A375FF
:100470000F4B92001A6005B0F0BD01250027C1E7BF
:10048000444400413244004100440041454400419D
:1004900000040040000800420E400000000C004034
:1004A000BC010020B4000020006CDC0204201040DD
:1004B00000E100E01049114A0B6810B50133040057
:1004C000134003D50E4A013B1343013380200D4AEC
:1004D0008000D0674A680020934207D00A68E4B2DF
:1004E0008A1814720B60084B013098758022074BF4
:1004F00092001A6010BDC046BC010020FF000080C1
:1005000000FFFFFF04E100E00008004200E100E01E
:1005100080220F4B920010B5DA670E4A0023546810
:1005200011688C420ED053680B49D3181B7A0360B4
:10053000536801330B4003D50849013B0B4301339A
:10054000536001238021064A89001800116010BD04
:1005500004E100E0B4000020FF00008000FFFFFF86
:1005600000E100E0F7B5254D2B7EDBB200935B0781
:1005700023D56F8B224E2B8D34689BB20193214B78
:100580000134BFB21C4003D51F4B013C1C43013456
:100590007B0702D54020FFF70FFEBB0702D51020D6
:1005A000FFF70AFEFB0702D52020FFF705FE736860
:1005B0009C420DD14020FFF7FFFD0123009A1A4213
:1005C00005D0124A50681168884208D12B75F7BDD2
:1005D0006A4633681279F3181A723460EDE753688B
:1005E0000849D3181B7A2B85536801330B4003D578
:1005F0000549013B0B4301335360E8E70008004223
:10060000B4000020FF00008000FFFFFFBC010020BD
:1006100001220F2070B5062437490B7813430B7065
:10062000364B37491D7885432C431C700C78144396
:100630000C7019780840602101431970202331495A
:10064000C8690343CB613049304B5980304B19782E
:100650000A431A709A78D207D10FFBD11F252D4A71
:10066000188D12682C4E540B2C40A40130402043AE
:100670001885188D940C2C40A84320431885188D9C
:10068000264C9201520F2040120302431A850A00A1
:100690008020140022494000545401328242FBD190
:1006A00059627F211A7870250A401A70042219783D
:1006B00007240A430C211A701A898A431A811A895D
:1006C0000B398A431A81082216491A83887A9218AC
:1006D00002438A72022219780A4300211A700A0022
:1006E00008325201985C0131A8439854985CA043A9
:1006F00098540829F3D170BD584400413C4400414E
:10070000594400410004004006400000000C004035
:1007100000500041246080003FF8FFFFFF8FFFFF83
:10072000C4020020FF500041054B083040011A5C14
:10073000802903D110398A431A5470470721FAE7F8
:1007400000500041F8B5032287787F233E0039002E
:10075000C57844791540027924021E401443994318
:10076000A4053000FFF7E0FFA40D0021082C15D9E7
:100770000131102C12D90131202C0FDD0131402C18
:100780000CDD0131802C09DD802301315B009C42AE
:1007900004DDDB1801319C4200DD01310120002D18
:1007A00007D00018012D04D0023D2800451EA841A5
:1007B000033033007AB20724244D08337601244FE6
:1007C000002A24DA20400001844670205A01AB5CE4
:1007D00083431800634618431E4BA854F5180223A0
:1007E000A87A1843A8721948121810790343137194
:1007F000802310795B4203431371174B9E190B0042
:10080000726923401B0717401F437761F8BD5B01E6
:10081000EA5C2040A24310430E4AE854B518012276
:10082000A87A1043A87209481B18187902431A7154
:100830004022587902435A71074B9E190B00726887
:1008400023401B0717403B437360DFE70050004124
:10085000FFFFFF8FFF500041C4020020064B08300D
:100860004001185C802905D14006400F431E984185
:10087000C0B270474007F9E7005000410830054B0F
:100880004001C0188079802902D18006C00F7047CE
:10089000C006FBE700500041054B08304001C0187E
:1008A00042792023802900D01023134343717047DD
:1008B00000500041124B08304001C0188379802954
:1008C0000FD19B060CD52023027913430371C37902
:1008D0005B0605D54023C37102793E3B1343037188
:1008E0007047DB06FCD51023027913430371C379EB
:1008F0009B06F5D52023C37102791F3BEEE7C04666
:100900000050004180235B421843024BC0B29872F2
:100910007047C046005000410C4B10B544011B19F4
:100920001C0019615B699204910C9A0B92030A43B3
:1009300062616369064A400113406361054BC01858
:10094000802342795B421343437110BDC4020020EF
:10095000FF3F00F00051004110B50B4C430119510D
:100960009204E31859681409084A40010A402243D6
:100970005A605A68920B92035A60054BC018402384
:1009800002791343037110BDC4020020FF3F00F041
:1009900000510041074A53699B0B9B03536102229C
:1009A000054B1A729979823A0A439A711A7A920718
:1009B000FCD57047C4020020FF500041174BF0B532
:1009C000DE7980235B429C46154F002900D1F0BDA3
:1009D0000A00B14200DD32000023934219DB114CC2
:1009E000950427616369AD0C9B0B9B032B436361EB
:1009F00063690D4D2B406361022465460B4B1C72ED
:100A00009C792C439C711C7AA407FCD5891A801808
:100A1000DBE7C45CFC540133DFE7C046741200001E
:100A2000C8030020C4020020FF3F00F0FF50004137
:100A3000014B18607047C046C4030020F7B55A4DFB
:100A4000AB8B1B073FD50823002270240720AB8304
:100A50007833AB72130008335B01E95C0132A143C8
:100A6000E954E95C8143E954082AF3D14F4B093238
:100A70005A7099792F320A439A718022C02059798D
:100A800052420A435A714A4A4A4C516980052140F0
:100A90000143516148491160516821400843506049
:100AA000516846480840802149030143516051681C
:100AB000890B890351601022997A0A439A720122A4
:100AC000997A0A439A72394C267AF606F60F54D070
:100AD000374E73689B049B0C082B49D1364800F0B5
:100AE00047F9002844D073689B0B9B037360402335
:100AF000627913436371012323721023237201244B
:100B000027002D8CADB2002D31D0274B6201D318B8
:100B10000193264BD0183B00A340067A9D43F6B2C2
:100B20003E4210D02649531859799C464023194318
:100B3000634659711E4B07729B185968200089043F
:100B4000890C00F051FA02210E420DD01C4A6301BB
:100B50009B1880221879524202431A71019B20008F
:100B6000FF33197200F034FA0134082CCBD1F7BDF1
:100B70002023A2791343A371BFE7237ADB07BED5F5
:100B8000104F3B68002B08D0094A0B485168890474
:100B9000890C98473E60FFF7FDFE4023A27913437E
:100BA000A3710123AAE7C04600500041FF50004155
:100BB000C4020020FFFFFF8F08040020FF3F00F069
:100BC00000510041C403002010B5FFF7AFFA10BD7B
:100BD00010B5FFF7A5FA10BD10B50A00072907D117
:100BE000044C0100200000F097FA2000FFF7B0FA53
:100BF00010BDC04601000020094A10B51378002B33
:100C00000CD1084B08491B680889984206D001207E
:100C100010700A2202300B81FFF77EFE10BDC04625
:100C200048040020580400204C04002000227C21AD
:100C300010B5064B1A70064A13898B431381054A77
:100C400013688B431360FFF7D7FF10BD48040020E3
:100C50004C0400205804002010B50F49032000F078
:100C600081F80E49012000F07DF80D49022000F0C6
:100C700079F801220B4B02211A701F325A700022A0
:100C8000D9805A809A801A81074B08481A60084B0D
:100C90001A70FFF75DFA10BD2D0C0000D10B00009B
:100CA000C90B00004C040020580400200100002063
:100CB0004804002010B50A0001000120FFF72CFEB7
:100CC00010BD10B50A0001000220FFF745FE10BD5F
:100CD00010B5034B1A6810431860FFF78DFF10BD65
:100CE0005804002010B5437802781B021343114AC0
:100CF00093420BD0104A934213D0104A00209342E3
:100D000003D10F48FFF794FE012010BDC17983790C
:100D100009021943072900DD07210A48FFF74EFEA3
:100D2000F2E78378C07800021843FFF715FAFFF75F
:100D300031FEE9E7A121000021220000212000006E
:100D4000D90B0000010000200023190010B5044A4F
:100D500099500433202BFBD1FFF75AFC10BDC0463D
:100D600060040020014B8000C150704760040020E7
:100D7000F0B5437802781B021343C02285B000AF60
:100D800005009200934218D019D8822B00D1D6E0EA
:100D900007D8802B00D3CDE02800FFF7A3FF040085
:100DA0008BE00222FF32934200D1E3E00132934212
:100DB00000D1E2E0023A9342EED100247DE0A0228D
:100DC000D200934200D183E021D87A4A934200D1E5
:100DD000D0E0794A9342DFD1C37882781B02134373
:100DE000EBD17F26457903792D021D432E40E4D0B7
:100DF00080231D4029003000FFF730FD041EDCD0A9
:100E000029003000FFF748FDFFF7C4FD55E08822B8
:100E10001201934200D186E08032934261D0D02209
:100E2000D2009342B8D1C3788278C47981791B0209
:100E3000134324021A0A0C436048012A12D0022AE2
:100E40000AD15F48C178837809021943A14200DDC5
:100E50002100FFF7B3FD2FE0032AAED1DBB2002B58
:100E600002D158480178F1E7032BA6D86A463A60C8
:100E7000554A9B009D58280000F090F9030001336B
:100E80005B001A0069460A32D208D2008A1A03218E
:100E900078609546517029001370961C481B844653
:100EA000786860450DDC21009C4200DD19001000CF
:100EB000FFF784FD3B689D4601242000BD4605B038
:100EC000F0BD087801313070002070700236E5E71F
:100ED000FFF760FDE878AB7800021843FFF712FDDA
:100EE000EAE7C3788278394E1B0213433360FFF779
:100EF00051FD33680124002BDFD0314DEB78AC7805
:100F00001B021C43002C04D13068FFF719F901348F
:100F1000D3E76B78052B02D12800FFF713FC2B7861
:100F2000E41AED18EEE7294B01211B68BB730E2371
:100F3000F8188EE700230221FB810E33F8E77F25A6
:100F40008026437902791B0213431D401E40002373
:100F500031002800FB81FFF781FC041EADD0310079
:100F60002800FFF78BFC0E23F8810221F818FFF709
:100F700025FDA2E7FFF70EFD9EE7C37882781B02EE
:100F8000134300D019E77F26457903792D021D43CD
:100F90002E4000D111E780231D4029003000FFF7CB
:100FA0005DFC041E00D108E729003000FFF782FC39
:100FB0002AE7C0460103000002030000741200008B
:100FC0003012000088120000080000205C0400209D
:100FD000044B8000C35810B5002B01D00020984767
:100FE00010BDC04660040020044A8000835810B53C
:100FF000002B01D00800984710BDC04660040020B7
:10100000002243088B4274D303098B425FD3030A47
:101010008B4244D3030B8B4228D3030C8B420DD35A
:10102000FF22090212BA030C8B4202D312120902E8
:1010300065D0030B8B4219D300E0090AC30B8B4226
:1010400001D3CB03C01A5241830B8B4201D38B03D4
:10105000C01A5241430B8B4201D34B03C01A524179
:10106000030B8B4201D30B03C01A5241C30A8B42BC
:1010700001D3CB02C01A5241830A8B4201D38B02A7
:10108000C01A5241430A8B4201D34B02C01A52414B
:10109000030A8B4201D30B02C01A5241CDD2C309BD
:1010A0008B4201D3CB01C01A524183098B4201D339
:1010B0008B01C01A524143098B4201D34B01C01A24
:1010C000524103098B4201D30B01C01A5241C3089C
:1010D0008B4201D3CB00C01A524183088B4201D30B
:1010E0008B00C01A524143088B4201D34B00C01AF7
:1010F0005241411A00D20146524110467047FFE763
:1011000001B5002000F006F802BDC0460029F7D066
:1011100076E770477047C046F0B505000F2A2FD913
:101120000B0003439B0734D116000C000300103E54
:10113000350901352D01451927681F6067685F6013
:10114000A7689F60E7681034DF6010339D42F3D1D9
:101150000F239E431036851989191340032B1AD982
:101160001E1F0023B4080134A400CF58EF500433ED
:10117000A342FAD10324A643331D2240C918ED1817
:10118000002A05D00023CC5CEC5401339342FAD101
:10119000F0BD0500F6E71A00F2E7C04610B5830778
:1011A00025D00378002B24D00300032102E01A7815
:1011B000002A1AD001330B42F9D119680E4A0F4C9C
:1011C0008A188A43224206D1043319680A4A8A18C7
:1011D0008A432242F8D01A001B78002B03D0013238
:1011E00011780029FBD1101A10BD181AFCE7030072
:1011F000E3E70020F8E7C046FFFEFEFE8080808027
:10120000303132333435363738394142434445463C
:1012100000416C65782054617261646F7600566994
:10122000727475616C20434F4D2D506F727400FFC6
:101230000902430002010080320904000001020299
:10124000000005240010010424020205240102010B
:10125000052406000107058303400001090401007D
:10126000020A000000070581024000000705020293
:10127000400000FF120110010200004066668888ED
:0C128000000101020301FFFF0403090448
:04128C00F8B5C046AB
:04129000F8B5C046A7
:101294000100C2010000000800000000111200005B
:0812A4001E120000800400206E
:040000030000009168
:00000001FF
